{
  "contractName": "CourseMarketplace",
  "abi": [
    {
      "inputs": [],
      "stateMutability": "nonpayable",
      "type": "constructor"
    },
    {
      "inputs": [],
      "name": "CourseHasOwner",
      "type": "error"
    },
    {
      "inputs": [],
      "name": "CourseIsNotCreated",
      "type": "error"
    },
    {
      "inputs": [],
      "name": "InvalidState",
      "type": "error"
    },
    {
      "inputs": [],
      "name": "OnlyOwnerError",
      "type": "error"
    },
    {
      "inputs": [],
      "name": "SenderIsNotCourseOwner",
      "type": "error"
    },
    {
      "inputs": [],
      "name": "isStopped",
      "outputs": [
        {
          "internalType": "bool",
          "name": "",
          "type": "bool"
        }
      ],
      "stateMutability": "view",
      "type": "function"
    },
    {
      "stateMutability": "payable",
      "type": "receive"
    },
    {
      "inputs": [
        {
          "internalType": "uint256",
          "name": "amount",
          "type": "uint256"
        }
      ],
      "name": "withdraw",
      "outputs": [],
      "stateMutability": "nonpayable",
      "type": "function"
    },
    {
      "inputs": [],
      "name": "emergencyWithdraw",
      "outputs": [],
      "stateMutability": "nonpayable",
      "type": "function"
    },
    {
      "inputs": [],
      "name": "selfDestruct",
      "outputs": [],
      "stateMutability": "nonpayable",
      "type": "function"
    },
    {
      "inputs": [],
      "name": "stopContract",
      "outputs": [],
      "stateMutability": "nonpayable",
      "type": "function"
    },
    {
      "inputs": [],
      "name": "resumeContract",
      "outputs": [],
      "stateMutability": "nonpayable",
      "type": "function"
    },
    {
      "inputs": [
        {
          "internalType": "bytes16",
          "name": "courseId",
          "type": "bytes16"
        },
        {
          "internalType": "bytes32",
          "name": "proof",
          "type": "bytes32"
        }
      ],
      "name": "purchaseCourse",
      "outputs": [],
      "stateMutability": "payable",
      "type": "function"
    },
    {
      "inputs": [
        {
          "internalType": "address",
          "name": "newOwner",
          "type": "address"
        }
      ],
      "name": "transferOwnership",
      "outputs": [],
      "stateMutability": "nonpayable",
      "type": "function"
    },
    {
      "inputs": [],
      "name": "getCourseCount",
      "outputs": [
        {
          "internalType": "uint256",
          "name": "",
          "type": "uint256"
        }
      ],
      "stateMutability": "view",
      "type": "function"
    },
    {
      "inputs": [
        {
          "internalType": "uint256",
          "name": "_index",
          "type": "uint256"
        }
      ],
      "name": "getCourseHashAtIndex",
      "outputs": [
        {
          "internalType": "bytes32",
          "name": "",
          "type": "bytes32"
        }
      ],
      "stateMutability": "view",
      "type": "function"
    },
    {
      "inputs": [
        {
          "internalType": "bytes32",
          "name": "_courseHash",
          "type": "bytes32"
        }
      ],
      "name": "getCourseByHash",
      "outputs": [
        {
          "components": [
            {
              "internalType": "uint256",
              "name": "id",
              "type": "uint256"
            },
            {
              "internalType": "uint256",
              "name": "price",
              "type": "uint256"
            },
            {
              "internalType": "bytes32",
              "name": "proof",
              "type": "bytes32"
            },
            {
              "internalType": "address",
              "name": "owner",
              "type": "address"
            },
            {
              "internalType": "enum CourseMarketplace.State",
              "name": "state",
              "type": "uint8"
            }
          ],
          "internalType": "struct CourseMarketplace.Course",
          "name": "",
          "type": "tuple"
        }
      ],
      "stateMutability": "view",
      "type": "function"
    },
    {
      "inputs": [
        {
          "internalType": "bytes32",
          "name": "_courseHash",
          "type": "bytes32"
        }
      ],
      "name": "repurchaseCourse",
      "outputs": [],
      "stateMutability": "payable",
      "type": "function"
    },
    {
      "inputs": [
        {
          "internalType": "bytes32",
          "name": "_courseHash",
          "type": "bytes32"
        }
      ],
      "name": "activateCourse",
      "outputs": [],
      "stateMutability": "nonpayable",
      "type": "function"
    },
    {
      "inputs": [
        {
          "internalType": "bytes32",
          "name": "_courseHash",
          "type": "bytes32"
        }
      ],
      "name": "deActivateCourse",
      "outputs": [],
      "stateMutability": "nonpayable",
      "type": "function"
    },
    {
      "inputs": [],
      "name": "getContractOwner",
      "outputs": [
        {
          "internalType": "address",
          "name": "",
          "type": "address"
        }
      ],
      "stateMutability": "view",
      "type": "function"
    }
  ],
  "bytecode": "0x60806040526000600260006101000a81548160ff02191690831515021790555034801561002b57600080fd5b5061003b3361004060201b60201c565b610084565b80600460006101000a81548173ffffffffffffffffffffffffffffffffffffffff021916908373ffffffffffffffffffffffffffffffffffffffff16021790555050565b6118ed806100936000396000f3fe6080604052600436106100ec5760003560e01c806362e4e6ac1161008a578063c4bc5da511610059578063c4bc5da5146102b8578063d76821cb146102cf578063db2e21bc146102eb578063f2fde38b14610302576100f3565b806362e4e6ac146101fc5780636d11290b1461023957806396cfda06146102765780639cb8a26a146102a1576100f3565b806339262572116100c657806339262572146101615780633f683b6a1461018a578063442890d5146101b55780636136e1eb146101e0576100f3565b806312253a6c146100f857806313cd32561461010f5780632e1a7d4d14610138576100f3565b366100f357005b600080fd5b34801561010457600080fd5b5061010d61032b565b005b34801561011b57600080fd5b5061013660048036038101906101319190611281565b6103b4565b005b34801561014457600080fd5b5061015f600480360381019061015a91906112e4565b61060e565b005b34801561016d57600080fd5b5061018860048036038101906101839190611281565b61078e565b005b34801561019657600080fd5b5061019f610909565b6040516101ac919061132c565b60405180910390f35b3480156101c157600080fd5b506101ca61091c565b6040516101d79190611388565b60405180910390f35b6101fa60048036038101906101f59190611281565b610946565b005b34801561020857600080fd5b50610223600480360381019061021e9190611281565b610a9c565b60405161023091906114af565b60405180910390f35b34801561024557600080fd5b50610260600480360381019061025b91906112e4565b610b77565b60405161026d91906114d9565b60405180910390f35b34801561028257600080fd5b5061028b610bd8565b6040516102989190611503565b60405180910390f35b3480156102ad57600080fd5b506102b6610bfc565b005b3480156102c457600080fd5b506102cd610cbc565b005b6102e960048036038101906102e49190611576565b610d45565b005b3480156102f757600080fd5b50610300610eff565b005b34801561030e57600080fd5b50610329600480360381019061032491906115e2565b611055565b005b61033361091c565b73ffffffffffffffffffffffffffffffffffffffff163373ffffffffffffffffffffffffffffffffffffffff1614610397576040517f65b4837300000000000000000000000000000000000000000000000000000000815260040160405180910390fd5b6001600260006101000a81548160ff021916908315150217905550565b600260009054906101000a900460ff16156103ce57600080fd5b6103d661091c565b73ffffffffffffffffffffffffffffffffffffffff163373ffffffffffffffffffffffffffffffffffffffff161461043a576040517f65b4837300000000000000000000000000000000000000000000000000000000815260040160405180910390fd5b610443816110cd565b610479576040517f4db0c48300000000000000000000000000000000000000000000000000000000815260040160405180910390fd5b60008060008381526020019081526020016000209050600060028111156104a3576104a26113d0565b5b8160030160149054906101000a900460ff1660028111156104c7576104c66113d0565b5b146104fe576040517fbaf3f0f700000000000000000000000000000000000000000000000000000000815260040160405180910390fd5b60008160030160009054906101000a900473ffffffffffffffffffffffffffffffffffffffff1673ffffffffffffffffffffffffffffffffffffffff16826001015460405161054c90611640565b60006040518083038185875af1925050503d8060008114610589576040519150601f19603f3d011682016040523d82523d6000602084013e61058e565b606091505b50509050806105d2576040517f08c379a00000000000000000000000000000000000000000000000000000000081526004016105c9906116b2565b60405180910390fd5b60028260030160146101000a81548160ff021916908360028111156105fa576105f96113d0565b5b021790555060008260010181905550505050565b61061661091c565b73ffffffffffffffffffffffffffffffffffffffff163373ffffffffffffffffffffffffffffffffffffffff161461067a576040517f65b4837300000000000000000000000000000000000000000000000000000000815260040160405180910390fd5b4781106106bc576040517f08c379a00000000000000000000000000000000000000000000000000000000081526004016106b39061171e565b60405180910390fd5b6000600460009054906101000a900473ffffffffffffffffffffffffffffffffffffffff1673ffffffffffffffffffffffffffffffffffffffff168260405161070490611640565b60006040518083038185875af1925050503d8060008114610741576040519150601f19603f3d011682016040523d82523d6000602084013e610746565b606091505b505090508061078a576040517f08c379a0000000000000000000000000000000000000000000000000000000008152600401610781906116b2565b60405180910390fd5b5050565b600260009054906101000a900460ff16156107a857600080fd5b6107b061091c565b73ffffffffffffffffffffffffffffffffffffffff163373ffffffffffffffffffffffffffffffffffffffff1614610814576040517f65b4837300000000000000000000000000000000000000000000000000000000815260040160405180910390fd5b61081d816110cd565b610853576040517f4db0c48300000000000000000000000000000000000000000000000000000000815260040160405180910390fd5b600080600083815260200190815260200160002090506000600281111561087d5761087c6113d0565b5b8160030160149054906101000a900460ff1660028111156108a1576108a06113d0565b5b146108d8576040517fbaf3f0f700000000000000000000000000000000000000000000000000000000815260040160405180910390fd5b60018160030160146101000a81548160ff02191690836002811115610900576108ff6113d0565b5b02179055505050565b600260009054906101000a900460ff1681565b6000600460009054906101000a900473ffffffffffffffffffffffffffffffffffffffff16905090565b600260009054906101000a900460ff161561096057600080fd5b610969816110cd565b61099f576040517f4db0c48300000000000000000000000000000000000000000000000000000000815260040160405180910390fd5b6109a88161113b565b6109de576040517fcce31cc400000000000000000000000000000000000000000000000000000000815260040160405180910390fd5b60008060008381526020019081526020016000209050600280811115610a0757610a066113d0565b5b8160030160149054906101000a900460ff166002811115610a2b57610a2a6113d0565b5b14610a62576040517fbaf3f0f700000000000000000000000000000000000000000000000000000000815260040160405180910390fd5b60008160030160146101000a81548160ff02191690836002811115610a8a57610a896113d0565b5b02179055503481600101819055505050565b610aa46111ec565b6000808381526020019081526020016000206040518060a00160405290816000820154815260200160018201548152602001600282015481526020016003820160009054906101000a900473ffffffffffffffffffffffffffffffffffffffff1673ffffffffffffffffffffffffffffffffffffffff1673ffffffffffffffffffffffffffffffffffffffff1681526020016003820160149054906101000a900460ff166002811115610b5a57610b596113d0565b5b6002811115610b6c57610b6b6113d0565b5b815250509050919050565b60006003548210610bbd576040517f08c379a0000000000000000000000000000000000000000000000000000000008152600401610bb49061178a565b60405180910390fd5b60016000838152602001908152602001600020549050919050565b6000600260009054906101000a900460ff1615610bf457600080fd5b600354905090565b600260009054906101000a900460ff16610c1557600080fd5b610c1d61091c565b73ffffffffffffffffffffffffffffffffffffffff163373ffffffffffffffffffffffffffffffffffffffff1614610c81576040517f65b4837300000000000000000000000000000000000000000000000000000000815260040160405180910390fd5b600460009054906101000a900473ffffffffffffffffffffffffffffffffffffffff1673ffffffffffffffffffffffffffffffffffffffff16ff5b610cc461091c565b73ffffffffffffffffffffffffffffffffffffffff163373ffffffffffffffffffffffffffffffffffffffff1614610d28576040517f65b4837300000000000000000000000000000000000000000000000000000000815260040160405180910390fd5b6000600260006101000a81548160ff021916908315150217905550565b600260009054906101000a900460ff1615610d5f57600080fd5b60008233604051602001610d74929190611813565b604051602081830303815290604052805190602001209050610d958161113b565b15610dcc576040517fb0fc2d9700000000000000000000000000000000000000000000000000000000815260040160405180910390fd5b600060036000815480929190610de19061186e565b9190505590508160016000838152602001908152602001600020819055506040518060a001604052808281526020013481526020018481526020013373ffffffffffffffffffffffffffffffffffffffff16815260200160006002811115610e4c57610e4b6113d0565b5b81525060008084815260200190815260200160002060008201518160000155602082015181600101556040820151816002015560608201518160030160006101000a81548173ffffffffffffffffffffffffffffffffffffffff021916908373ffffffffffffffffffffffffffffffffffffffff16021790555060808201518160030160146101000a81548160ff02191690836002811115610ef157610ef06113d0565b5b021790555090505050505050565b600260009054906101000a900460ff16610f1857600080fd5b610f2061091c565b73ffffffffffffffffffffffffffffffffffffffff163373ffffffffffffffffffffffffffffffffffffffff1614610f84576040517f65b4837300000000000000000000000000000000000000000000000000000000815260040160405180910390fd5b6000600460009054906101000a900473ffffffffffffffffffffffffffffffffffffffff1673ffffffffffffffffffffffffffffffffffffffff1647604051610fcc90611640565b60006040518083038185875af1925050503d8060008114611009576040519150601f19603f3d011682016040523d82523d6000602084013e61100e565b606091505b5050905080611052576040517f08c379a0000000000000000000000000000000000000000000000000000000008152600401611049906116b2565b60405180910390fd5b50565b61105d61091c565b73ffffffffffffffffffffffffffffffffffffffff163373ffffffffffffffffffffffffffffffffffffffff16146110c1576040517f65b4837300000000000000000000000000000000000000000000000000000000815260040160405180910390fd5b6110ca816111a8565b50565b60008073ffffffffffffffffffffffffffffffffffffffff1660008084815260200190815260200160002060030160009054906101000a900473ffffffffffffffffffffffffffffffffffffffff1673ffffffffffffffffffffffffffffffffffffffff1614159050919050565b60003373ffffffffffffffffffffffffffffffffffffffff1660008084815260200190815260200160002060030160009054906101000a900473ffffffffffffffffffffffffffffffffffffffff1673ffffffffffffffffffffffffffffffffffffffff16149050919050565b80600460006101000a81548173ffffffffffffffffffffffffffffffffffffffff021916908373ffffffffffffffffffffffffffffffffffffffff16021790555050565b6040518060a00160405280600081526020016000815260200160008019168152602001600073ffffffffffffffffffffffffffffffffffffffff168152602001600060028111156112405761123f6113d0565b5b81525090565b600080fd5b6000819050919050565b61125e8161124b565b811461126957600080fd5b50565b60008135905061127b81611255565b92915050565b60006020828403121561129757611296611246565b5b60006112a58482850161126c565b91505092915050565b6000819050919050565b6112c1816112ae565b81146112cc57600080fd5b50565b6000813590506112de816112b8565b92915050565b6000602082840312156112fa576112f9611246565b5b6000611308848285016112cf565b91505092915050565b60008115159050919050565b61132681611311565b82525050565b6000602082019050611341600083018461131d565b92915050565b600073ffffffffffffffffffffffffffffffffffffffff82169050919050565b600061137282611347565b9050919050565b61138281611367565b82525050565b600060208201905061139d6000830184611379565b92915050565b6113ac816112ae565b82525050565b6113bb8161124b565b82525050565b6113ca81611367565b82525050565b7f4e487b7100000000000000000000000000000000000000000000000000000000600052602160045260246000fd5b600381106114105761140f6113d0565b5b50565b6000819050611421826113ff565b919050565b600061143182611413565b9050919050565b61144181611426565b82525050565b60a08201600082015161145d60008501826113a3565b50602082015161147060208501826113a3565b50604082015161148360408501826113b2565b50606082015161149660608501826113c1565b5060808201516114a96080850182611438565b50505050565b600060a0820190506114c46000830184611447565b92915050565b6114d38161124b565b82525050565b60006020820190506114ee60008301846114ca565b92915050565b6114fd816112ae565b82525050565b600060208201905061151860008301846114f4565b92915050565b60007fffffffffffffffffffffffffffffffff0000000000000000000000000000000082169050919050565b6115538161151e565b811461155e57600080fd5b50565b6000813590506115708161154a565b92915050565b6000806040838503121561158d5761158c611246565b5b600061159b85828601611561565b92505060206115ac8582860161126c565b9150509250929050565b6115bf81611367565b81146115ca57600080fd5b50565b6000813590506115dc816115b6565b92915050565b6000602082840312156115f8576115f7611246565b5b6000611606848285016115cd565b91505092915050565b600081905092915050565b50565b600061162a60008361160f565b91506116358261161a565b600082019050919050565b600061164b8261161d565b9150819050919050565b600082825260208201905092915050565b7f5472616e73666572206661696c65642100000000000000000000000000000000600082015250565b600061169c601083611655565b91506116a782611666565b602082019050919050565b600060208201905081810360008301526116cb8161168f565b9050919050565b7f496e73756666696369656e742066756e64732100000000000000000000000000600082015250565b6000611708601383611655565b9150611713826116d2565b602082019050919050565b60006020820190508181036000830152611737816116fb565b9050919050565b7f496e646578204f7574206f6620426f756e640000000000000000000000000000600082015250565b6000611774601283611655565b915061177f8261173e565b602082019050919050565b600060208201905081810360008301526117a381611767565b9050919050565b6000819050919050565b6117c56117c08261151e565b6117aa565b82525050565b60008160601b9050919050565b60006117e3826117cb565b9050919050565b60006117f5826117d8565b9050919050565b61180d61180882611367565b6117ea565b82525050565b600061181f82856117b4565b60108201915061182f82846117fc565b6014820191508190509392505050565b7f4e487b7100000000000000000000000000000000000000000000000000000000600052601160045260246000fd5b6000611879826112ae565b91507fffffffffffffffffffffffffffffffffffffffffffffffffffffffffffffffff8214156118ac576118ab61183f565b5b60018201905091905056fea2646970667358221220d777a51d9ae7305b0d0fa0de0a93359933e90a9e41d378bf1647e84ebecf917964736f6c634300080b0033",
  "immutableReferences": {},
  "source": "// SPDX-License-Identifier: MIT\r\npragma solidity >=0.4.22 <0.9.0;\r\n\r\ncontract CourseMarketplace {\r\n    enum State {\r\n        Purchased,\r\n        Activated,\r\n        Deactivated\r\n    }\r\n\r\n    struct Course {\r\n        uint256 id;\r\n        uint256 price;\r\n        bytes32 proof;\r\n        address owner;\r\n        State state;\r\n    }\r\n\r\n    // Mappings\r\n    mapping(bytes32 => Course) private ownedCourses;\r\n    mapping(uint256 => bytes32) private ownedCourseHashes;\r\n\r\n    //Stop contract\r\n    bool public isStopped = false;\r\n\r\n    // Total bought courses by students\r\n    uint256 private totalOwnedCourses;\r\n\r\n    // Owner of this contract\r\n    address payable private owner;\r\n\r\n    /// You are already a owner of this course!\r\n    error CourseHasOwner();\r\n\r\n    /// Sender is not a course owner!\r\n    error SenderIsNotCourseOwner();\r\n\r\n    /// Only owner can perform this action!\r\n    error OnlyOwnerError();\r\n\r\n    /// Course is not created!\r\n    error CourseIsNotCreated();\r\n\r\n    /// Course has invalid state!\r\n    error InvalidState();\r\n\r\n    constructor() {\r\n        setContractOwner(msg.sender);\r\n    }\r\n\r\n    modifier onlyOwner() {\r\n        if (msg.sender != getContractOwner()) {\r\n            revert OnlyOwnerError();\r\n        }\r\n        _;\r\n    }\r\n\r\n    modifier onlyWhenNotStopped() {\r\n        require(!isStopped);\r\n        _;\r\n    }\r\n\r\n    modifier onlyWhenStopped() {\r\n        require(isStopped);\r\n        _;\r\n    }\r\n\r\n    //Callback or receive to receive ethers without function name call\r\n    receive() external payable {}\r\n\r\n    function withdraw(uint256 amount) external onlyOwner {\r\n        require(amount < address(this).balance, \"Insufficient funds!\");\r\n        (bool success, ) = owner.call{value: amount}(\"\");\r\n        require(success, \"Transfer failed!\");\r\n    }\r\n\r\n    function emergencyWithdraw() external onlyWhenStopped onlyOwner {\r\n        (bool success, ) = owner.call{value: address(this).balance}(\"\");\r\n        require(success, \"Transfer failed!\");\r\n    }\r\n\r\n    function selfDestruct() external onlyWhenStopped onlyOwner {\r\n        //this selfdestruct function will destruct this contract and send all the balances to the owner\r\n        selfdestruct(owner);\r\n    }\r\n\r\n    function stopContract() external onlyOwner {\r\n        isStopped = true;\r\n    }\r\n\r\n    function resumeContract() external onlyOwner {\r\n        isStopped = false;\r\n    }\r\n\r\n    function purchaseCourse(bytes16 courseId, bytes32 proof)\r\n        external\r\n        payable\r\n        onlyWhenNotStopped\r\n    {\r\n        bytes32 courseHash = keccak256(abi.encodePacked(courseId, msg.sender));\r\n\r\n        if (hasCourseOwnership(courseHash)) {\r\n            revert CourseHasOwner();\r\n        }\r\n\r\n        uint256 id = totalOwnedCourses++;\r\n        ownedCourseHashes[id] = courseHash;\r\n\r\n        ownedCourses[courseHash] = Course({\r\n            id: id,\r\n            price: msg.value,\r\n            proof: proof,\r\n            owner: msg.sender,\r\n            state: State.Purchased\r\n        });\r\n    }\r\n\r\n    function transferOwnership(address newOwner) external onlyOwner {\r\n        setContractOwner(newOwner);\r\n    }\r\n\r\n    function getCourseCount()\r\n        external\r\n        view\r\n        onlyWhenNotStopped\r\n        returns (uint256)\r\n    {\r\n        return totalOwnedCourses;\r\n    }\r\n\r\n    function getCourseHashAtIndex(uint256 _index)\r\n        external\r\n        view\r\n        returns (bytes32)\r\n    {\r\n        require(_index < totalOwnedCourses, \"Index Out of Bound\");\r\n        return ownedCourseHashes[_index];\r\n    }\r\n\r\n    function getCourseByHash(bytes32 _courseHash)\r\n        external\r\n        view\r\n        returns (Course memory)\r\n    {\r\n        return ownedCourses[_courseHash];\r\n    }\r\n\r\n    function repurchaseCourse(bytes32 _courseHash)\r\n        external\r\n        payable\r\n        onlyWhenNotStopped\r\n    {\r\n        if (!isCourseCreated(_courseHash)) {\r\n            revert CourseIsNotCreated();\r\n        }\r\n\r\n        if (!hasCourseOwnership(_courseHash)) {\r\n            revert SenderIsNotCourseOwner();\r\n        }\r\n\r\n        Course storage course = ownedCourses[_courseHash];\r\n\r\n        if (course.state != State.Deactivated) {\r\n            revert InvalidState();\r\n        }\r\n\r\n        course.state = State.Purchased;\r\n        course.price = msg.value;\r\n    }\r\n\r\n    function activateCourse(bytes32 _courseHash)\r\n        external\r\n        onlyWhenNotStopped\r\n        onlyOwner\r\n    {\r\n        if (!isCourseCreated(_courseHash)) {\r\n            revert CourseIsNotCreated();\r\n        }\r\n\r\n        Course storage course = ownedCourses[_courseHash];\r\n\r\n        if (course.state != State.Purchased) {\r\n            revert InvalidState();\r\n        }\r\n\r\n        course.state = State.Activated;\r\n    }\r\n\r\n    function deActivateCourse(bytes32 _courseHash)\r\n        external\r\n        onlyWhenNotStopped\r\n        onlyOwner\r\n    {\r\n        if (!isCourseCreated(_courseHash)) {\r\n            revert CourseIsNotCreated();\r\n        }\r\n\r\n        Course storage course = ownedCourses[_courseHash];\r\n\r\n        if (course.state != State.Purchased) {\r\n            revert InvalidState();\r\n        }\r\n\r\n        (bool success, ) = course.owner.call{value: course.price}(\"\");\r\n        require(success, \"Transfer failed!\");\r\n\r\n        course.state = State.Deactivated;\r\n        course.price = 0;\r\n    }\r\n\r\n    function getContractOwner() public view returns (address) {\r\n        return owner;\r\n    }\r\n\r\n    function hasCourseOwnership(bytes32 _courseHash)\r\n        private\r\n        view\r\n        returns (bool)\r\n    {\r\n        return ownedCourses[_courseHash].owner == msg.sender;\r\n    }\r\n\r\n    function isCourseCreated(bytes32 _courseHash) private view returns (bool) {\r\n        return\r\n            ownedCourses[_courseHash].owner !=\r\n            0x0000000000000000000000000000000000000000;\r\n    }\r\n\r\n    function setContractOwner(address newOwner) private {\r\n        owner = payable(newOwner);\r\n    }\r\n}\r\n",
  "sourcePath": "E:\\WebProjects\\Ethereum\\marketplace\\contracts\\CourseMarketplace.sol",
  "compiler": {
    "name": "solc",
    "version": "0.8.11+commit.d7f03943.Emscripten.clang"
  },
  "schemaVersion": "3.4.4",
  "updatedAt": "2022-03-13T04:34:31.029Z",
  "devdoc": {
    "kind": "dev",
    "methods": {},
    "version": 1
  },
  "userdoc": {
    "errors": {
      "CourseHasOwner()": [
        {
          "notice": "You are already a owner of this course!"
        }
      ],
      "CourseIsNotCreated()": [
        {
          "notice": "Course is not created!"
        }
      ],
      "InvalidState()": [
        {
          "notice": "Course has invalid state!"
        }
      ],
      "OnlyOwnerError()": [
        {
          "notice": "Only owner can perform this action!"
        }
      ],
      "SenderIsNotCourseOwner()": [
        {
          "notice": "Sender is not a course owner!"
        }
      ]
    },
    "kind": "user",
    "methods": {},
    "version": 1
  }
}